:020000040800F2
:10000000286600201D030008BF36000829330008B9
:10001000BD360008A9190008B53A00080000000024
:100020000000000000000000000000005D02000869
:10003000F11A000800000000B9020008C1360008EB
:1000400037030008370300083703000837030008A8
:100050003703000837030008F31A000837030008C5
:100060003703000837030008370300083703000888
:100070003703000837030008370300083703000878
:10008000111A00081D1A000837030008370300087A
:100090003703000837030008370300083703000858
:1000A0003703000837030008370300083703000848
:1000B0003703000837030008370300083703000838
:1000C0003703000837030008370300083703000828
:1000D00037030008A93A000837030008370300086F
:1000E0003703000837030008370300083703000808
:1000F00037030008370300083703000837030008F8
:1001000037030008370300083703000837030008E7
:1001100037030008370300083703000837030008D7
:10012000291A0008370300083703000837030008BE
:1001300037030008370300083703000837030008B7
:1001400037030008370300083703000837030008A7
:100150003703000837030008411A00083703000876
:100160003703000837030008370300083703000887
:1001700037030008370300083703000800000000B9
:1001800037030008370300084B1C012B98BF70474A
:100190002DE9F003911C9B08B1F80480B1F802909E
:1001A0000A8831F802CC8044814402448444D9F85E
:1001B0000070D8F800601568DCF80040C9F80060ED
:1001C000C8F80070CCF800501460D9F80470D8F862
:1001D00004605568DCF80440C9F80460C8F804708D
:1001E000CCF80450546008315B1ED5D1BDE8F00353
:1001F00070474B1C012B98BF70472DE9F003911CF1
:100200009B08B1F80480B1F802900A8831F802CC5A
:1002100000EB580800EB590900EB520200EB5C0CB4
:10022000D9F80070D8F800601568DCF80040C9F80B
:100230000060C8F80070CCF80050146008315B1EF4
:10024000DFD1BDE8F0037047DFF80CD001F08EFA83
:100250000048004789510008286600202C4B196887
:100260000868B0E8F04F80F30988BFF36F8F4FF054
:10027000000080F311887047000000000848006803
:10028000006880F308884FF0000080F3148862B69D
:1002900061B6BFF34F8FBFF36F8F00DF00BF00BFAA
:1002A00008ED00E0DFF80C00016841F47001016026
:1002B000704700BF88ED00E0EFF30980BFF36F8F58
:1002C000134B1A681EF0100F08BF20ED108A20E9AA
:1002D000F04F106009B44FF0500080F31188BFF365
:1002E0004F8FBFF36F8F05F029FA4FF0000080F3B6
:1002F000118809BC19680868B0E8F04F1EF0100FAB
:1003000008BFB0EC108A80F30988BFF36F8F704785
:100310003C000020EFF3058070470000064880474E
:1003200006480047FEE7FEE7FEE7FEE7FEE7FEE7DA
:10033000FEE7FEE7FEE7FEE76D370008490200082A
:100340009FED3D0A5FEA920C57D000BFD0ED000A46
:1003500090ED011A0B1D60EEA00A083041EE010A73
:10036000F5EEC00AF1EE10FAA6BFB1EEE01A81ED8B
:10037000001A81ED000AD0ED000A90ED011A191D56
:1003800060EEA00A083041EE010AF5EEC00AF1EE77
:1003900010FAA6BFB1EEE01A83ED001A83ED000A51
:1003A000D0ED000A90ED011A0B1D60EEA00A083096
:1003B00041EE010AF5EEC00AF1EE10FAA6BFB1EE69
:1003C000E01A81ED001A81ED000A90ED001AD0EDDF
:1003D000010A191D21EE011A083000EEA01AB5EE2F
:1003E000C01AF1EE10FAA6BFF1EEC10AC3ED000A81
:1003F00083ED000ABCF1010CA8D112F0030208BF82
:10040000704700BFD0ED000A90ED011A0B4660EE78
:10041000A00A091D083041EE010AF5EEC00AF1EE0E
:1004200010FAA6BFB1EEE01A83ED001A83ED000AC0
:10043000521EE7D170470000000000002DE9F04196
:1004400006462DED028B8C460088736801EB800414
:100450004508274601EB850004EB85025FEA950815
:100460007DD000BFD1ED003AD4ED001A91ED012A04
:1004700094ED013A73EEA16A91ED024A91ED031AEF
:10048000D4ED022AD4ED035A90ED008A90ED017A62
:1004900090ED020A90ED036A92ED005AD2ED014A06
:1004A000D2ED027AD2ED030AC1ED006A72EE036A60
:1004B00073EEE13A74EEC71AC1ED016A74EE226A76
:1004C00074EE622A37EEC04AC1ED026A71EE256A07
:1004D000C1ED036A72EE436A31EE652A38EE051A01
:1004E00035EE483A80ED001A37EE241A80ED011AF5
:1004F00030EE271A80ED021A36EE201A80ED031A2C
:1005000030EEC61A93ED000AD3ED010A63EE804A7D
:1005100026EEA05A66EE805A63EEA03A74EE854A43
:1005200075EEE33AC4ED004A63EE204AC4ED013AA9
:1005300061EE803A61EEA00A23EE000A74EEE31A3F
:1005400030EE800AC2ED001A82ED010A93ED020A34
:10055000D3ED030A62EE803A22EE203A00E024E076
:1005600062EEA01A22EE002A73EE832A10301031B8
:1005700072EE611AC4ED022A24EE202AC4ED031A99
:1005800061EE001A61EE200A24EE000A103332EE0A
:10059000611A103430EE800A82ED021A82ED030AED
:1005A0001032B8F101087FF45DAF2946022360469E
:1005B000726800F041FB72682946BDEC028B384638
:1005C000BDE8F041022300F037BB2DE9F34F2DEDDC
:1005D000048B87B00B980088470801EB870000EB7D
:1005E000870606EB8705CDE90056DDF82C80A5F1DE
:1005F000040C0CEB8703CDE902014FEA5709D8F848
:1006000004800427CDE90497D1ED000A96ED000A95
:1006100090ED011A95ED013A70EE802A70EEC03A25
:10062000D1ED010A96ED010A041F321F30EE802A37
:1006300070EEC01A31EE230AD0ED000A32EE415AB4
:1006400033EEC11A30EE434A71EEE04A95ED000AEE
:1006500070EEA11A35EE435A74EE805A72EEE04AFB
:1006600070EEA20A71EEC01A31EE031A74EEC04A9F
:1006700030EE800A062708F1080A81ED000A90EDA5
:10068000010AD5ED010A08F1100B30EE020A08F15B
:10069000180830EE200A81ED010A80ED004AC0ED15
:1006A000015AC6ED004A86ED015A85ED001AC5EDE6
:1006B000011ADDF810900830083108350836A9F124
:1006C00002095FEA590900F0078100BFD1ED000A75
:1006D00096ED000AD0ED011AD5ED014A30EE802AE0
:1006E00030EEC05AD1ED010A96ED010A70EE802A73
:1006F00030EEC01A31EE850AD5ED000A30EE644ABC
:1007000090ED000A31EE403A30EE011A73EE205AB5
:1007100032EE403A30EE020A31EE601A73EE603A81
:1007200030EE200A32EEE13A75EE611A81ED000AF0
:1007300090ED010AD5ED010A33EE643A30EE220A5B
:1007400071EEA41A30EE200A81ED010AD4ED002AE0
:10075000DCED004A54ED010A1CED010A32EEA47AE8
:1007600032EEE49A72EEE42A52ED018A70EE807A5B
:1007700030EEC02A72EEE82AD2ED000A93ED000AAC
:1007800013ED018A30EEC05A72EE886A77EEE82ADD
:1007900035EE026A32EEC85A77EE602A72EEC04A2F
:1007A00070EEC02A70EE870A72EEC22A30EE800A1E
:1007B00038EE682A84ED000A12ED010A53ED010AB1
:1007C00032EE492A30EE270A30EE200A04ED010A03
:1007D0009AED000ADAED010A64EE007A25EEA07ABD
:1007E00065EE805A24EE204A37EE877A35EEC44A09
:1007F00080ED007A80ED014A26EEA04A66EE005AAE
:1008000066EE200A26EE800A083034EE654A08318A
:1008100030EE800A82ED004A083C02ED010A9BEDB1
:10082000000ADBED010ADDF814E023EE804A63EEF6
:10083000205A23EE003A63EEA03A083A34EE254AF5
:100840000BEB8E0B33EE633A86ED004A0AF1080A91
:1008500086ED013AB1EE643A083663EE003A25EED1
:10086000203A25EE000A64EEA00A33EEC33A30EED9
:10087000C00A8CED003A0CED010A98ED000AD8EDA3
:10088000010A08EB870861EE803A21EE203A21EE5A
:10089000001A61EEA01AACF1080C33EE833A31EE87
:1008A000611A85ED003A62EE801A85ED011A22EE9A
:1008B000201A62EEA00A22EE000A083531EE611A13
:1008C00030EE800A83ED001A03ED010A083BB9F10E
:1008D00001097FF4FBAE00BFD1ED000A96ED000ADE
:1008E00091ED011AD0ED015A30EE802A70EEC00A67
:1008F00096ED010A95ED015A042371EE001A71EE8E
:10090000404A35EEA00A90ED001A31EEE54A70EE4D
:10091000E50A30EE453A95ED000A34EE454A30EEF0
:10092000855A74EEC12A72EE413A71EE240A31EE14
:10093000021A72EE802A73EEC03A70EEC00A31EEEF
:10094000000A81ED000A90ED010A95ED011A30EEE2
:10095000210A30EE010A81ED010A9AED000A9AEDB2
:10096000011A63EE001A22EE812A22EE800A23EE9B
:10097000011A71EE821A30EE410AC0ED001A80EDC4
:10098000010A9BED000A9BED011A63EE801A24EE2A
:10099000012A24EE000A23EE811A71EE821A30EE4B
:1009A000410AC6ED001A86ED010A98ED010A98ED9C
:1009B000001A60EE801A25EE012A60EE810A25EE0B
:1009C000000A32EE211A30EEC00A85ED001A85EDDC
:1009D000010A0B984268DDE9030100F02DF90B983C
:1009E000042304994268029800F026F90B98042326
:1009F00004994268019800F01FF90B9804990423A8
:100A00004268009807B0BDEC048B02B0BDE8F04F1F
:100A100000F012B92DE9F0410488984617460D46BA
:100A20000646012A20D1281DF4B1A0F1080114F0D6
:100A3000010F06D091ED020AB1EE400A81ED020AE3
:100A400008315FEA540C0FD091ED020AB1EE400A72
:100A500081ED020A91ED040AB1EE400A81ED040A2B
:100A60001031BCF1010CEFD1B4F5807F1BD008DC54
:100A7000102C13D0202C16D0402C19D0802C0DD047
:100A80001CE0B4F5007F13D0B4F5806F06D0B4F548
:100A9000006F08D0B4F5805F0AD00FE029463046D9
:100AA000FFF7CCFC0AE029463046FFF78EFD05E053
:100AB000214601232846726800F0BEF8B8F1000F05
:100AC00004D0B1892846B268FFF75EFB012F18BF3A
:100AD000BDE8F08100EE104AB7EE001A002CF8EEE7
:100AE000400A81EE200A08BFBDE8F081A5F10800A8
:100AF00014F0010F0ED0D0ED020A60EE800AC0EDB6
:100B0000020AD0ED030AF1EE600A60EE800AC0ED41
:100B1000030A0830610808BFBDE8F081D0ED020A81
:100B200060EE800AC0ED020AD0ED030AF1EE600A21
:100B300060EE800AC0ED030AD0ED040A60EE800A80
:100B4000C0ED040AD0ED050AF1EE600A60EE800AFD
:100B5000C0ED050A1030491EE0D1BDE8F08100006B
:100B600070B44FF0000CB0EC010A4E1E6446B5089C
:100B700032D000BFD0ED000A90ED011A0830B4EE7B
:100B8000E00AF1EE10FA3CBFB0EE600A0CF101048D
:100B9000B4EEC10AF1EE10FA3CBFB0EE410A0CF11E
:100BA0000204D0ED000A90ED011A0830B4EEE00A1C
:100BB000F1EE10FA3CBFB0EE600A0CF10304B4EEA3
:100BC000C10AF1EE10FA3CBFB0EE410A0CF1040488
:100BD0006D1E0CF1040CCDD116F0030C18D0BCF135
:100BE000004F1AD2BCF1000FC4BF002566460FDDCE
:100BF000D0ED000AF4EEC00AF1EE10FA04DD4C1953
:100C0000B0EE600AA4EB0C04001D6D1C761EEFD143
:100C100082ED000A1C6070BC7047F0EC010AB4EE73
:100C2000E00AF1EE10FA3CBFB0EE600AA1EB0C0452
:100C3000BCF1010CF1D1EBE72DE9FF4F2DED108B4D
:100C400082B09FEDFEFA0B461C46DB084FF0000C0D
:100C50000CEB030505EB030808EB030909EB03069E
:100C600006EB030A00EBCC0700EBC60697ED001A73
:100C7000D6ED000A0AEB030B00EBC50500EBCA0A30
:100C800031EE200A71EE601A95ED002ADAED000AC5
:100C90000BEB030E00EBC80832EE201A00EBCB0B77
:100CA00032EE602AD8ED002ADBED000A00EBC9091C
:100CB00000EBCE0E99ED003A9EED004A72EEA03A9E
:100CC00072EEE02A73EE040A33EE443A70EE636A81
:100CD00070EE233A31EE600A71EE200A33EEA01A6C
:100CE00073EEE00A87ED001AC6ED000A97ED011ACF
:100CF000D6ED010AD5ED013A98ED014A31EE206AB0
:100D000071EE600A9AED011A99ED015A73EE814A6B
:100D100073EEC13A9BED011A34EE017A34EE411ABA
:100D20009EED014A75EE045A35EE444A36EE475AB6
:100D300036EE076A34EEE57A74EEA54A76EE245A6A
:100D400076EE644AC7ED015AC6ED014A76EE874A4F
:100D5000C8ED004A76EEC74ACBED004A75EE404A30
:100D600035EE000AC8ED014A8BED010A32EE430A66
:100D700032EE032A20EE0F0A62EE0F4A33EEC42A47
:100D8000A4448C4522EE0F3A33EE842A30EEC34A57
:100D900062EE0F3A30EE833A31EEC02A31EE800A2D
:100DA00071EE630A31EE231A72EEE41A72EEA42A8F
:100DB00070EE013A30EE410AC5ED003A8EED000AC0
:100DC00032EE200A8AED000A32EE600A89ED000A4E
:100DD00033EE620A85ED010A33EE220A8EED010A36
:100DE00034EE610A8AED010A34EE210A89ED010A26
:100DF000FFF42EAF082B3FBF02B0BDEC108B04B048
:100E0000BDE8F08F4FF0000CCDF804C04FF0010C9E
:100E1000CDF800C0DDF804C0159DAC444FEA8C0548
:100E200005EB0C07CDF804C007EB0C094FEA4C08A2
:100E300008EB0C0609EB0C0A02EBCC0C02EBC80821
:100E400002EBC60602EBC50502EBC70702EBC909B8
:100E500002EBCA0A9CED00DA9CED018AD8ED00CACB
:100E600096ED00CAD5ED00BA97ED00BAD9ED00AA0B
:100E7000DAED008AD8ED017A96ED01AA95ED017AB6
:100E8000D7ED016A99ED016ADAED019ADDF800C04B
:100E90000CEB0307FD1805EB030A0AEB030808EB4C
:100EA000030606EB030B00EBCC0900EBC808D9EDF9
:100EB000000A98ED000A00EBC70700EBC606D7ED65
:100EC000001A96ED001A70EE803A0BEB030E70EEEE
:100ED000C00A31EE810A00EBC50500EBCB0B31EE09
:100EE000C11AD5ED001A9BED002A00EBCA0A00EBEF
:100EF000CE0E31EE824A71EEC21A9AED002ADEED74
:100F0000002A32EE223A32EE622A73EEC42A73EEDF
:100F1000843A30EE435A30EE030A33EE803A73EEF1
:100F2000C0DA89ED003A99ED010A98ED013AD7ED62
:100F3000013A95ED014A70EE03EA30EE433A96ED40
:100F4000010A9AED01EADEED014A33EE809A73EE72
:100F5000C03A9BED010A74EE005A34EE404A3EEE70
:100F6000240A7EEE644A3EEEE5EA7EEEA55A79EE6C
:100F700040EA39EE009A32EEAE0A72EEEE2A75EED3
:100F800089EA35EEC99A7EEE455AC9ED01EA3EEE90
:100F9000055A2BEEADEA67EE09EA2BEE899A67EE69
:100FA0002DDA3EEE2EEA39EE6D9A88ED00EA67EE14
:100FB000A5DA88ED019A2CEE809A6CEEA55A27EE00
:100FC000800A39EE2D9A35EEC00A85ED009A66EE5C
:100FD000055A85ED010A2AEEA20A2AEE855A66EE26
:100FE000222A30EE250A8BED000A35EE620A73EEF6
:100FF000A42A8BED010A31EE420A31EE021A33EED9
:10100000E42A62EE8F3A20EE0F0A21EE0F1A22EE4A
:101010000F2A70EEC02A30EE800A71EEC10A71EE1E
:10102000811A33EE421A33EE022A34EE633A34EE7A
:10103000234A70EE043A30EE444A01E0F304353FAF
:1010400072EE834A72EEC32A32EE613A32EE210A20
:1010500071EE601A71EE200A2DEE232A28EE031A93
:101060002DEE033A68EE233AA44432EE011A28EE3C
:10107000842A8C4587ED001A33EE631A29EE843AF0
:1010800087ED011A29EE801A28EE800A32EE011A45
:1010900030EE430A26EEA42A8EED001A8EED010AE8
:1010A0002BEE240A26EEA11A6BEE211A30EE010A6D
:1010B0002CEE221A86ED000A31EEC20A6AEE221ADE
:1010C00086ED010A2AEE200A6CEE200A31EE000AB3
:1010D0008AED000A30EEE10A8AED010AFFF4D8AE8B
:1010E000DDF800C00CF1010CCDF800C063453FF6FF
:1010F00091AEDDF854C04FF6FF7404EACC0CCDF885
:1011000054C0072B3FF6A0AD02B0BDEC108B04B06D
:10111000BDE8F08F2DE9F05F0546002092469B4622
:1011200088460646814640241BE0284641464746FD
:10113000224600F034FA53465A46C01A914110D361
:1011400011461846224600F01BFA2D1A67EB0108DB
:101150004F4622460120002100F012FA17EB000949
:101160004E41201EA4F10104DFDC484631462A46E8
:101170004346BDE8F09FD2B201E000F8012B491EC2
:10118000FBD270470022F6E710B513460A46044624
:101190001946FFF7F0FF204610BD2DE9FE4F8046AF
:1011A00081EA0300C00F0C46009021F0004123F0BB
:1011B0000045B8EB0200A94105D2404621469046C1
:1011C0001C460B46024623F00040104347D0270D33
:1011D000C7F30A00C3F30A510290401A0190402855
:1011E0006BDAC3F3130040F4801B0098924620B1E1
:1011F0000023D2EB030A63EB0B0B01985946C0F1B5
:101200004002504600F0BCF906460D46504659468D
:10121000019A00F0D4F910EB08006141002487EA3C
:10122000115284EAE7731A4340D0009A62B3019ADC
:10123000012A4FEA075215DC001B61EB02014FF057
:10124000004202EA0752CDE90042001C41F580113C
:1012500032462B4600F00BFA03B0BDE8F08F404653
:101260002146F9E7001B61EB0201001C41F58013E8
:1012700000185B412018A2F5001747EB030140EA74
:10128000D570B6196D4111E06D084FEA360645EA92
:10129000C0754FEA0752001B61EB0201001C41F5CB
:1012A000801149084FEA30000019514132462B465F
:1012B00003B0BDE8F04F00F0CBB900980122400028
:1012C0000023D0EB020263EBE073009821464FEA63
:1012D000E074B8EB000061EB0401E9E783F0004340
:1012E0005BE781F0004158E72DE9FE4F81EA0304F6
:1012F00004F0004421F0004100944FF0000B23F073
:10130000004350EA01045ED052EA03045BD0C3F309
:101310000A54C1F30A552C44A4F2F3340194A0FBFF
:101320000254C1F3130141F48011C3F3130343F4D6
:10133000801301FB024400FB034E840A970A44EA2F
:10134000815447EA8357A4FB076802958D0A05FB81
:1013500007854FEA932C04FB0C542705029D4FEAA6
:10136000065847EA1637B5EB08056EEB070C870EF3
:10137000920E47EA811742EA8312A7FB0201B6EBFD
:101380000B0164EB00042B0D43EA0C335E1844EBB5
:101390001C50DA465146E7FB0201C5F313044FEA3D
:1013A0000B3343EA14534FEA0432019C43EA060329
:1013B000A4F10C040294009CCDE900B400F057F9AC
:1013C00003B0BDE8F08F00200146F9E72DE9F04DAC
:1013D00081EA030404F0004B21F0004514464FF06D
:1013E000000A23F0004150EA050220D054EA01022D
:1013F0001DD0C5F30A570246C5F31303C1F313000A
:10140000C1F30A5640F4801543F48013A7EB060895
:10141000101BD64608F2FD3873EB050002D308F125
:10142000010801E092185B41B8F1000F03DA0020D7
:101430000146BDE8F08D00204FF480110646844639
:101440000EE0171B73EB050705D3121B63EB0503B7
:1014500006434CEA010C49084FEA300092185B4100
:1014600050EA0107EDD152EA030012D082EA0400EB
:1014700083EA0501084305D0101BAB4106D20122C7
:10148000002306E000224FF0004302E06FF001026B
:1014900053101AEB06004CEB085110EB0A0041EB1D
:1014A0000B01BDE8F04D00F0D3B80EB540F233416A
:1014B00002910021CDE900110A460B4600F0D7F851
:1014C00003B000BDC1F30A5210B5C1F3130140F2DD
:1014D000FF3341F480119A4201DA002010BD40F23E
:1014E00033439A42A2F2334203DC524200F057F8EF
:1014F00010BD904010BD00F0004230F000400AD016
:10150000C10D01F56071C0F3160042EA0151C20835
:1015100040071143704700200146704701F0004327
:1015200030B421F0004150EA010206D00A0DA2F5C4
:101530006072C1F31301002A02DC30BC0020704746
:10154000440F44EAC104C100E01830BC00EBC250B3
:1015500000F047B830B50B46014600202022012498
:1015600009E021FA02F59D4205D303FA02F5491B71
:1015700004FA02F52844151EA2F10102F1DC30BD87
:10158000202A04DB203A00FA02F100207047914043
:10159000C2F1200320FA03F3194390407047202A38
:1015A00004DB203A21FA02F00021704721FA02F30D
:1015B000D040C2F120029140084319467047202ACA
:1015C00006DBCB17203A41FA02F043EAE07306E06B
:1015D00041FA02F3D040C2F120029140084319467B
:1015E00070470029A8BF7047401C490008BF20F081
:1015F0000100704710B4B0FA80FC00FA0CF050EA19
:10160000010404BF10BC704749B1CCF1200421FA99
:1016100004F411FA0CF118BF012121430843A3EB94
:101620000C01CB1D4FEA00614FEA102042BF0020A1
:1016300010BC704700EBC35010440029A4BF10BC7D
:101640007047401C490008BF20F0010010BC7047E3
:1016500010B5141E73F1000408DA401C41F10001BA
:1016600092185B411A4301D120F0010010BD2DE911
:10167000F04D92469B4611B1B1FA81F202E0B0FA08
:1016800080F220329046FFF77BFF04460F4640EA87
:101690000A0041EA0B0153465A46084313D011464B
:1016A00053EA010019D0C8F140025046FFF777FF16
:1016B00005460E46504659464246FFF761FF08432D
:1016C00005D0012004E020463946BDE8F08D002019
:1016D000054346EAE0762C4337430A986305E40A5B
:1016E000A0EB08000022FD0A44EA47540A3002D564
:1016F00000200146E9E7010510196941DDE90845C7
:1017000000196941BDE8F04DA2E7C1F30A52C1F3E7
:10171000130140F2FF3341F480119A4202DA0020B3
:101720000146704740F233439A42A2F2334202DC50
:101730005242FFF734BFFFF723BF000030B5041E4D
:1017400071F1000404DB4FF00044404264EB0101FE
:10175000141E73F1000405DB1C464FF00043524297
:1017600063EB0403994208BF904230BD064C074D1D
:1017700006E0E06840F0010394E807009847103461
:10178000AC42F6D3FEF764FD3088000850880008AC
:101790000EB5C10F80EAE0700844CA07002140F28C
:1017A00033438DE80E000A460B46FFF760FF03B097
:1017B00000BD70B5C1F30A5201F000450024C1F329
:1017C000130140F2FF3341F480119A4201DA002004
:1017D00070BD40F233439A42A2F2334203DC5242DC
:1017E000FFF7DDFE00E090402C43F1D0404270BD99
:1017F00010B50146806B026C12F0500F05D0026CE0
:10180000D20626D500F022FA10BD016C41F4007119
:10181000016401688A6812F0405F17D1027EAAB99C
:10182000CA6A12F4700F02D08A6852050ED44A6850
:1018300022F020024A60016C21F480710164016C85
:10184000C90403D4016C41F00101016400F0FCF90A
:1018500010BD806BC26CBDE810400846104710B543
:10186000806B40210164416C41F00401416400F04F
:10187000EDF910BD10B5806B00F0E7F910BD000068
:10188000464910B54A6822F440324A604A684368C3
:101890001A434A6001684A6822F480724A6001680B
:1018A0004A68036942EA03224A6001684A6822F0F2
:1018B00040724A6001684A6883681A434A60016856
:1018C0008A6822F400628A6001688A68C3681A43E1
:1018D0008A60816A6FF07062D14201688A6822F082
:1018E00070628A6001688A680CD0836A1A438A60D1
:1018F00001688A6822F040528A6001688A68C36A77
:101900001A4301E022F040528A6001688A6822F09E
:1019100002028A6001688A68037E42EA43028A60A2
:1019200090F82010002901684A680FD042F4006244
:101930004A6001684A6822F460424A6001684A6865
:10194000174C436A04EB43331A4301E022F400626C
:101950004A600168CA6A22F47002CA620168CA6AEF
:10196000838B104C04EB03531A43CA6201688A68E4
:1019700022F400728A6001688A6890F8303042EA86
:1019800043228A6001688A6822F480628A60016862
:101990008A68406942EA8020886010BD00230140C7
:1019A00000E0FFFF0000F0FFFEE710B5846B20466B
:1019B00000F094FA0120207110BD10B5846B204610
:1019C00000F066FA0120207110BD10B5846B20690B
:1019D00040F004002061204600F082FA01202071CE
:1019E00010BD10B5846B206940F0040020612046D2
:1019F00000F050FA0120207110BD10B5806B00F08E
:101A00006EFA10BD10B5806B00F043FA10BD0000F7
:101A1000014800F0C7BB000040590020014800F019
:101A2000C1BB0000A059002010B5034800F0BAFB6C
:101A300002490120087010BDCC5800200000002091
:101A4000014800F0AFBB0000D45A00200168182301
:101A5000CAB2103AB2FBF3F2054B6FF30901032A45
:101A60009B5CC36500D9091D81650846704700006D
:101A7000AC58000810B5014600208B698A6A4FF007
:101A8000C07453B1B3F5005F15D072B1012A0CD008
:101A9000022A0AD0032A09D104E01AB1012A06D089
:101AA000022A03D1C96AC90100D5012010BDC96A43
:101AB000A142FAD010BD002AF7D0012AF2D0022AA2
:101AC000F3D0032AF3D010BD30B50468256825F49F
:101AD00080252560046863608368402B036803D019
:101AE00099600068C26030BD9A600068C16030BD16
:101AF0007047012000F0DCBC72B6FEE778B5002428
:101B0000009490F83C20012A19D0012280F83C2052
:101B10000A6807230568092A13D9EE680A3A02EB16
:101B2000420293409E43EE600B788A680A3B03EBC7
:101B300043039A400368DD682A43DA6010E002201C
:101B400078BD2E6902EB420293409E432E610B78D2
:101B50008A6803EB43039A4003681D692A431A61AC
:101B60004A681F23072A13D205686E6B521E02EBC8
:101B7000820293409E436E630B790A885B1E92B289
:101B800003EB83039A4003685D6B2A435A6327E0A3
:101B900005680D2A12D22E6BD21F02EB82029340EF
:101BA0009E432E630B790A88DB1F92B203EB8303FB
:101BB0009A4003681D6B2A431A6311E0EE6A0D3ADE
:101BC00002EB820293409E43EE620B790A880D3B42
:101BD00092B203EB83039A400368DD6A2A43DA6218
:101BE000164B0568144A9D4206D10D68122D03D18B
:101BF000556845F48005556005689D4218D10B680D
:101C0000102B01D0112B13D1536843F40003536000
:101C1000096810290CD10A490A4A0968B1FBF2F196
:101C200001EB8101490000E0491E00910029FBD130
:101C300080F83C40002078BD002301400020014096
:101C40003800002040420F0070477047704770B561
:101C500004004FF0000503D0206C002610B107E00F
:101C6000012070BD204600F01DF8666484F83C60D9
:101C7000206CC00610D4206C20F4885040F0020084
:101C800020642046FFF7FCFD6664206C20F0020013
:101C900040F00100206400E0012584F83C60284603
:101CA00070BD000070B586B0064614216846FFF787
:101CB00069FA1D493068884233D11C480025016803
:101CC00041F480710160006800F48070059017484D
:101CD0001438016841F0020101600068694600F0B3
:101CE00002000590012000900320CDE90105104875
:101CF00000F0EAFB104C0F48C4E900050015A56090
:101D0000C4E90350400060618000C4E90605256213
:101D10002046656200F016FB08B1FFF7EDFEB463E4
:101D2000A66306B070BD00000020014044380240A8
:101D30000004024010640240CC580020F8B504466C
:101D400000200E46009094F83C10012907D0012194
:101D500084F83C1021688B68DB0702D011E0022078
:101D6000F8BD8B6843F001038B604049404B096824
:101D7000B1FBF3F101EB410100E0491E00910029A4
:101D8000FBD121688B68DB0503D58B6823F4807356
:101D90008B6021688B68DB075DD0236C40F20165A6
:101DA000AB4343F4807323644968490505D5216C2E
:101DB00021F4005141F480512164216CC90404D5FF
:101DC000616C21F00601616400E0606484F83C000D
:101DD000A16B2948274DC863A16B28480864A16BF3
:101DE0002748C86421686FF02200086020684168B5
:101DF00041F0806141602068816841F480718160B8
:101E00002168134632464C31A06B00F005FB686830
:101E10001C49C006206806D0884224D1816811F090
:101E2000405F13D01FE08842F8D0174A904203D198
:101E3000D1F80423D206F1D0144A904213D1D1F83C
:101E4000041301F01F011029E8D30CE0816841F070
:101E50008041816007E0206C40F010002064606CDD
:101E600040F0010060640020F8BD00003800002050
:101E700040420F0000230140F117000875180008C8
:101E80005F180008002001400021014000220140AD
:101E900070477047704770B54379012B1CD00126FD
:101EA00046710223037105682B6802F0100440F6A6
:101EB000FE72A2409343D1E900210A43A2401A4393
:101EC0002A6001680A68C023A3409A430A60067129
:101ED00000214171084670BD022070BD70477047F7
:101EE000704770B5040003D02079002510B105E0DB
:101EF000012070BD6571204600F008F802202071B5
:101F0000256101202071002070BD00002DE9F04FF7
:101F100087B0064614216846FFF734F92B4930682C
:101F2000884250D12A480025016841F000510160E3
:101F3000006800F00050059025481038016841F015
:101F4000010101600068694600F001000590302041
:101F500000900320CDE901051E4800F0B5FA1F4CA2
:101F60001D484FF060674FF0400884E8810100157C
:101F7000C4E903504FF4807BC4E907B54FF400690E
:101F80004FF4005A6562C4E9059A204600F0DAF978
:101F900008B1FFF7B1FDB460A663104C0E48603481
:101FA000183084E881010015C4E90350C4E907B57D
:101FB0006562C4E9059A204600F0C4F908B1FFF74C
:101FC0009BFDF460A66307B0BDE8F08F007400408D
:101FD0004038024000000240886002404059002022
:101FE0002DE9F04104460D46174661790022069816
:101FF000012920D00126667102212171F5B1D4F8A2
:102000000CC03549CCF83C10D4F80CC03349CCF89E
:102010004010D4F80CC03249CCF84C102168D1F8EB
:1020200000C04CF0805CC1F800C090B3042834D0EC
:10203000082837D134E00220BDE8F081D4F808C088
:102040002849CCF83C10D4F808C02749CCF84010F7
:10205000D4F808C02549CCF84C102168D1F800C04C
:102060004CF4805CC1F800C020B1042805D00828D9
:1020700008D105E02268083204E022680C3201E051
:10208000226810322068016841F400510160A068A4
:102090000EE0FFE72268143204E02268183201E003
:1020A00022681C322068016841F000510160E0683C
:1020B000394600F0B1F90021617120B1216941F088
:1020C00004012161B8E721680A6805F010039E4009
:1020D00032430A60B0E70000BB190008051A000887
:1020E000E3190008AB190008FB190008CB19000818
:1020F0002DE9F0410446876D00F0EAFA064694F8AF
:1021000035000025022806D08020606584F8345010
:102110000120BDE8F0812068016821F0160101600E
:102120002068416921F080014161206C08B9A06CF0
:1021300020B12068016821F0080101602068016871
:1021400021F0010101600BE000F0C2FA801B0528BC
:1021500006D92020606504F8345F03206070D8E75A
:1021600020680068C007EFD194F85C103F208840D9
:10217000B86004F8345F012060700020C9E790F86F
:102180003510022903D080214165012070470521C7
:1021900080F835100068016821F00101016000201D
:1021A000704700002DE9F84304464FF00009CDF8D0
:1021B000009063484FF41651A56D0068B0FBF1F72D
:1021C0002E6894F85C10082000FA01F131420FD01B
:1021D00021680A6852070BD50A6822F004020A60D7
:1021E00094F85C108840A860606D40F00100606564
:1021F00094F85C104FF0010808FA01F0304208D062
:1022000021684969090604D5A860606D40F00200A4
:10221000606594F85C1004208840304208D0216842
:102220000968890704D5A860606D40F00400606506
:1022300094F85C1010208840304218D0216809685A
:10224000090714D5A86020680168490304D500680F
:10225000000308D5A16C07E00168C90503D4016833
:1022600021F008010160216C09B12046884794F8EB
:102270005C1020208840304231D021680968C906AE
:102280002DD5A86094F8350005282068016806D08F
:10229000490347D5006800031DD4616C1CE021F0A0
:1022A000160101602068416921F080014161206CC4
:1022B00008B9A06C20B12068016821F00801016014
:1022C00094F85C103F208840A86084F8349084F82B
:1022D0003580216D1FE0E16B09B120468847606DB4
:1022E00000282BD0606DC00714D0052084F835007D
:1022F0002068016821F0010101600098401C0090F5
:10230000B84203D820680068C007F6D184F834903A
:1023100084F83580E16C002910D001B02046BDE87A
:10232000F04308470168C905D5D4016821F01001C0
:10233000016084F8349084F83580CCE7BDE8F883F8
:10234000380000202DE9F041044600F0C1F90646AE
:102350005CB1002584F83450022084F835002068F0
:10236000016821F0010101600DE00120BDE8F0816C
:1023700000F0AEF9801B052805D9202060650320F8
:1023800084F83500F2E720680068C007F0D12268C1
:10239000116820480140D4E901031843D4E9033609
:1023A0003343184363691843A3691843E369184327
:1023B000236A18430843616A042903D1D4E90B1343
:1023C00019430843106020684069666A20F00701DD
:1023D00030460E43012704280CD1A06A0643E06A68
:1023E00040B12046FFF746FB20B14020606584F8ED
:1023F0003570BAE7206846612046FFF727FB94F85E
:102400005C203F2191408160656584F83570002033
:10241000ACE700003F8010F02DE9F0410446866DE6
:1024200090F83400002501280DD0012084F83400F4
:1024300094F835700020012F07D084F8340002256D
:102440002846BDE8F0810220FBE7022784F83570BA
:1024500060652046FFF738FB94F85C103F20884009
:10246000B0602068016841F016010160206C20B165
:102470002068016841F0080101602068016841F0AE
:1024800001010160DCE7000070B5044600F020F9AE
:102490000546601C02D004480078044400F018F996
:1024A000401BA042FAD370BD2C00002070470000F2
:1024B000044910B50A68024202D00860FFF7F6FF2F
:1024C00010BD0000143C01402DE9F84FDFF8B8A121
:1024D000002201250AF1040B03264FF00F090BF12E
:1024E000040E00BF0B6805FA02F42340A3426FD12B
:1024F0000F7907F00307012F01D0022F16D187684B
:102500004FEA420806FA08FC27EA0C07D1F80CC08B
:102510000CFA08FC4CEA070CC0F808C04768A7434F
:102520000C79C4F3001494403C4344600C79E443B8
:10253000A4070AD0C4684FEA420C06FA0CF7BC4361
:102540008F6807FA0CF72743C7600C7904F003047F
:10255000022C12D1D40800EB840CDCF82040570781
:10256000FF0E09FA07F824EA0804D1F8108008FAE7
:1025700007F848EA0408CCF8208004684FEA420CC7
:1025800006FA0CF7BC430F7907F0030707FA0CF7BC
:10259000274307604C68E40070D53C4C276847F43B
:1025A00080472760246822F0030704F480440094E5
:1025B000374C07EB040CDCF8084897074FEA17780C
:1025C00009FA08F7BC43334FB84202D1002724E090
:1025D00054E0314FB84201D101271EE02F4FB842DD
:1025E00001D1022719E02E4FB84201D1032714E090
:1025F0002C4FB84201D104270FE02B4FB84201D134
:1026000005270AE0294FB84201D1062705E0284FE7
:10261000B84201D1072700E0082707FA08F7274347
:10262000CCF80878DAF800405746D1F804C09C434B
:102630005FEACC3C00D51C433C60DBF800405F46C1
:10264000D1F804C09C435FEA8C3C00D51C433C603D
:10265000DEF800407746D1F804C09C435FEACC2CFA
:1026600000D51C433C60084F0C373C68D1F804C0CF
:102670009C435FEA8C2C00D51C433C60521C102A02
:10268000FFF430AFBDE8F88F003C01404438024011
:1026900000300140000002400004024000080240F7
:1026A000000C0240001002400014024000180240DA
:1026B000001C0240426921EA02030A4043EA024147
:1026C000816170470AB1816170470904FBE700002E
:1026D00001488068704700002C0000200248816893
:1026E00002781144816070472C0000200B4810B51F
:1026F000016841F400710160016841F4806101608A
:10270000016841F480710160032000F073F80F202C
:1027100000F006F800F024F8002010BD003C024054
:1027200070B50D4D04464FF47A712878B1FBF0F086
:102730000A490968B1FBF0F000F00EFB48B9102C13
:1027400007D200222146501E00F034F800206C60B1
:1027500070BD012070BD00002C000020380000205A
:102760000C4882B0016841F480410160006800F4C7
:10277000804000900748001F016841F080510160CF
:102780000068002200F0805000900F21901E02B0DF
:1027900000F010B844380240002809DB00F01F02A6
:1027A000012191404009800000F1E020C0F80011B3
:1027B00070470000F0B40E4B1B680C46C3F30223B5
:1027C000C3F10705042D00D90425191D072901D2DD
:1027D000002300E0DB1E012606FA05F1491E214018
:1027E00099409E40761E16403143F0BC01F08CB9F2
:1027F0000CED00E0064900F0070208684FF6FF0301
:10280000184040EA0220034A104308607047000065
:102810000CED00E00000FA052DE9F0470E4605003A
:1028200065D0DFF81481D8F80000F7B200F0070097
:10283000B04207D288F80070D8F8000000F0070016
:10284000B04254D128683D4C810712D5400703D5CA
:10285000206840F4E05020602878000703D5206805
:1028600040F4604020602068A96820F0F000084330
:1028700020602878C0072DD03049686808390128C1
:1028800012D0022813D0032811D009688907002923
:102890002DDA216821F0030101432160FFF718FFC1
:1028A000814641F2883A0EE009688903EFE709683A
:1028B0008901ECE7FFF70CFFA0EB0901514502D9B4
:1028C0000320BDE8F0872068696800F00C00B0EBD9
:1028D000810FEFD1D8F80010404601F00701B14256
:1028E00007D90770006800F00700B04201D001204E
:1028F000E7E72878400705D52068E96820F4E0502C
:10290000084320602878000706D52068296920F44C
:10291000604040EAC100206000F038F82168084AB1
:10292000C1F30311515CC8400649086006480068BD
:10293000FFF7F6FE0020C4E7003C024008380240E2
:10294000B458000838000020300000200448054931
:1029500000680968044AC1F38221515CC84070478D
:102960003800002008380240C458000804480549CF
:1029700000680968044AC1F34231515CC84070479D
:102980003800002008380240C4580008154810B527
:10299000006810F00C02144813D04110042A0FD024
:1029A000082A0ED10F4C241F2268236802F03F0230
:1029B0005B0207D52068C0F38810A0FB010106E088
:1029C000084610BD2168C1F38811A1FB0001002356
:1029D000FEF7A0FB2168C1F30141491C4900B0FB8F
:1029E000F1F010BD083802400024F4002DE9F84F42
:1029F00004006ED02078DFF84C93C007A9F10405DD
:102A00004AD009F104000168C1F38101012908D00D
:102A10000068C0F3810002280AD1D9F80000400202
:102A200006D52868800337D560680028E1D033E0F8
:102A30006068B0F5803F10D0B0F5A02F286810D0A6
:102A400020F480302860286820F4802028606068A6
:102A5000A8B1FFF73DFE06460DE0286840F480303F
:102A6000F4E740F480202860F7E700BFFFF730FE6E
:102A7000801B642873D828688003F7D50CE0FFF723
:102A800027FE064605E000BFFFF722FE801B6428F4
:102A9000F0D828688003F7D42078DFF8AC8280076C
:102AA0004FF0000A3ED5A748001D016811F00C0F39
:102AB00008D00068C0F3810002280BD1D9F80000CB
:102AC000400207D42868800716D5E068012800D1A5
:102AD00012E033E1E068B8B10120C8F80000FFF768
:102AE000F7FD064605E000BFFFF7F2FD801B022858
:102AF000C0D828688007F7D52868216920F0F80039
:102B000040EAC10028600DE0C8F800A0FFF7E0FD32
:102B1000064604E0FFF7DCFD801B02281FD828686A
:102B20008007F7D42078000722D5864F874861694F
:102B3000703771B101210160FFF7CAFD064604E05C
:102B4000FFF7C6FD801B022809D838688007F7D533
:102B50000EE0C0F800A0FFF7BBFD064605E082E0EE
:102B6000FFF7B6FD801B02287DD838688007F7D4B0
:102B70002078400768D5DFF8CCB100270BF13C0B7B
:102B8000DBF80000C0000BD4DBF8001041F08051EE
:102B9000CBF80010DBF80000012700F08050009017
:102BA0006B4E3068C00510D4306840F480703060DF
:102BB000FFF78EFD009005E0FFF78AFD0099401AAF
:102BC000022850D83068C005F6D55E4EA0686C3635
:102BD00001280FD00528306810D020F001003060A7
:102BE000306820F004003060A068B8B1FFF770FDD5
:102BF00000900FE0306840F00100F4E740F004007E
:102C00003060F7E7FFF764FD0099411A41F2883020
:102C1000814266D830688007F4D50EE0FFF758FD92
:102C2000009007E0FFF754FD0099411A41F2883007
:102C3000814256D830688007F4D42FB1DBF80010F9
:102C400021F08051CBF80010A069C8B33D49091D9F
:102C50000968C1F3810102294AD00228504607D0F1
:102C6000C8F8600000E03CE0FFF732FD04463BE0BE
:102C70004746C8F86000FFF72BFD064605E000BF99
:102C8000FFF726FD801B02282BD828688001F7D487
:102C9000D4E907010843A16A2E4A490802EB014121
:102CA000626A41EA8211084394F82C1040EA0161FB
:102CB000C9F8001001203866FFF70AFD044606E057
:102CC0003EE000BFFFF704FD001B022809D828687A
:102CD0008001F7D534E000BFFFF7FAFC001B0228A3
:102CE00002D90320BDE8F88F28688001F4D427E0DA
:102CF0000128F7D0D9F80000E26900F48001914280
:102D00001CD1226A00F03F01914217D147F6C071F1
:102D1000626A0140B1EB821F10D1A26A4FF0FF330B
:102D200000F4403103EB5202B1EB024F06D194F8AC
:102D30002C1000F07060B0EB016F01D00120D1E7E2
:102D40000020CFE70438024000004742800E47428F
:102D5000007000400000FFFF10B5401EB0F1807F02
:102D600001D3012010BD4FF0E02460610F216017F6
:102D700000F0CAFE0020A06107202061002010BDE5
:102D800070B590F83C20012A32D0012480F83C40F4
:102D9000022280F83D2003685A689D6822F0700680
:102DA0000A6832435A60134B02689A4214D0B2F157
:102DB000804F11D0104B9A420ED0104B9A420BD03C
:102DC0000F4B9A4208D00F4B9A4205D00E4B9A42B5
:102DD00002D00E4B9A4204D1496825F08003194372
:102DE000916080F83D40002180F83C10084670BD9D
:102DF000022070BD000001400004004000080040B7
:102E0000000C004000040140004001400018004058
:102E100010B5040003D094F83D0010B107E0012084
:102E200010BD002084F83C00204600F01FF802206E
:102E300084F83D00211D206800F0A0FC012084F8EA
:102E4000460084F83E0084F83F0084F8400084F88F
:102E5000410084F8420084F8430084F8440084F878
:102E6000450084F83D00002010BD000008B5016851
:102E70000B48B1F1804F0BD00A4A914207D101684B
:102E800041F002010160006800F00200009008BDFE
:102E9000016841F001010160006800F00100F5E700
:102EA000403802400004004090F83D10012901D054
:102EB00001207047022180F83D10006811498842C6
:102EC00014D0B0F1804F11D00F4988420ED00F4975
:102ED00088420BD00E49884208D00E49884205D05E
:102EE0000D49884202D00D49884204D1816801F021
:102EF0000701062903D0016841F0010101600020AB
:102F0000704700000000014000040040000800403D
:102F1000000C004000040140004001400018004047
:102F200070B5044690F83C00012817D0012584F8BC
:102F30003C50022084F83D002068826822F077022D
:102F400022F47F4282600868502830D00DDC2028AF
:102F50004DD005DC98B310283BD148E0022070BD6D
:102F6000302844D0402834D139E0602828D0702857
:102F700006D0B0F5805F2CD0B0F5005F29D10AE013
:102F8000CB68D1E90121206800F05CFC20688168F1
:102F900041F0770109E0CB68D1E90121206800F018
:102FA00051FC2068816841F48041816011E0CA6869
:102FB0004968206800F058FC5021206807E016E0BE
:102FC000CA684968206800F060FC6021206800F051
:102FD00043FC84F83D50002084F83C0070BDCA6872
:102FE0004968206800F040FC40212068EFE7226833
:102FF00001461046EBE7704770470000F8B50268DD
:1030000004461068D168536910F00F0F4FF00005A7
:1030100054D003F0010601F4907737435FD0C20724
:1030200005D0CA0503D5226C42F001022264420792
:1030300005D5DA0703D0226C42F00202226482072F
:1030400005D5DA0703D0226C42F00402226402079D
:1030500007D501F02002324303D0226C42F008026F
:103060002264226C002A35D0800604D5880602D559
:10307000204600F03CFC20684069216CC0F38010C1
:1030800001F008010143204625D000F018FC20681B
:10309000416949061BD5416921F040014161A06B9E
:1030A000A8B159490165A06BFFF769F8002811D054
:1030B000A06B016D01B0BDE8F040084783060ED556
:1030C0008B060CD52046BDE8F84000F010BC204629
:1030D000FFF792FFF8BDFFF78FFF2564F8BD266B61
:1030E0002023012E53D1C60651D5CE064FD51068E8
:1030F00050680090506940062BD5A16B0868406865
:103100000004000CEAD0A68D8642E7D9E085C869A4
:10311000B0F5807F18D0D06820F48070D06020682F
:10312000416921F0010141612068416921F04001BC
:10313000416184F83E3025632068C16821F01001A8
:10314000C160A06BFEF7D4FFA08DE18D401A81B263
:1031500019E0A08DE18D401A81B2E08D0028BDD02C
:103160000029BBD0D06820F49070D06020684269FC
:1031700022F00102426184F83E3025632068C26873
:1031800022F01002C2602046FFF735FFF8BD0506A9
:103190002BD50D0629D594F83D002128F6D1A0683D
:1031A000B0F5805F01D12069B0B1206A411C216275
:1031B000216800784860E08C401E0004000CE08428
:1031C000E4D12068C16821F08001C1602068C16835
:1031D00041F04001C160F8BD206A0088C0F30800DA
:1031E0005060206A801C2062E5E74006F3D548065F
:1031F000F1D5D168204621F04001D16084F83D30FE
:1032000000F091F8F8BD0000AF38000870B5040078
:1032100004D094F83D00002510B106E0012070BDF7
:1032200084F83C50204600F023F8242084F83D0028
:103230002068C16821F40051C160204600F0AEFB57
:103240002068016921F4904101612068416921F001
:103250002A0141612068C16841F40051C1602564C0
:10326000202084F83D0084F83E00002070BD00005E
:1032700070B586B0064614216846FDF783FF2449E1
:103280003068884242D123480025016841F010018E
:103290000160006800F0100005901E4814380168B5
:1032A00041F0010101600068694600F001000590ED
:1032B0004FF4C06000900220CDE901050320039087
:1032C000072004901448FFF7FFF8154C13482060BE
:1032D0004FF0006060604020C4E902050001C4E9CD
:1032E00004058001A561C4E9075020466562FFF727
:1032F00029F808B1FEF700FC74630022052125209F
:10330000A663FFF757FA2520FFF746FA06B070BD0F
:10331000001001404438024000000240B8640240FE
:10332000D45A002070477047FEE700007FB50024A4
:1033300016480094019402941349039401604FF4D9
:103340008031C0E901140461047680F8204009034B
:10335000C1620125C5614910C460816280F83040B6
:103360004561FEF774FC08B1FEF7C6FB0820CDE905
:103370000005694602940548FEF7C0FB002801D00D
:10338000FEF7BAFB7FBD00000020014084580020FA
:103390001CB500201149009001900F4808600846B4
:1033A000FEF79FFD08B1FEF7A7FB24200090022046
:1033B0000190002269460948FEF76DFD08B1FEF74D
:1033C0009BFB102269460548FEF765FD002801D0E9
:1033D000FEF792FB1CBD0000007400402C59002039
:1033E000194808B5016841F480010160016801F4E1
:1033F00080010091016841F4001101600068002221
:1034000000F40010009005211020FFF7D3F91020E0
:10341000FFF7C2F9002205211120FFF7CBF9112097
:10342000FFF7BAF9002205213820FFF7C3F9382049
:10343000FFF7B2F9002207214620FFF7BBF9BDE8EC
:1034400008404620FFF7A8B9303802402DE9F04F78
:1034500087B014216846FDF795FE504800260168A4
:1034600041F010010160016801F01001059101684F
:1034700041F020010160016801F02001059101681F
:1034800041F080010160016801F08001059101684F
:1034900041F004010160016801F004010591016837
:1034A00041F001010160016801F00101059101682D
:1034B00041F002010160016801F00201059101681B
:1034C00041F0080101600068DFF8D4B000F00800A6
:1034D0004FF4C0650590002229465846FFF7F2F8E0
:1034E000012204212F48FFF7EDF84FF40069012273
:1034F00049465846FFF7E6F84FF4806A01225146E4
:103500002948FFF7DFF81C20CDE9000601246946B1
:1035100002942648FEF7D8FFCDE900540325CDE9F3
:10352000026569465846FEF7CFFF21486946CDE956
:10353000004002961F48FEF7C7FF4FF0040811270E
:10354000CDE9008769461748CDE90245FEF7BCFF83
:10355000CDE9009769465846CDE90245FEF7B4FF2C
:10356000CDE900A769461048CDE90245FEF7ACFF5A
:10357000280200901220CDE90106CDE903586946E2
:103580000848FEF7A1FF062100220846FFF712F9BE
:103590000620FFF701F907B0BDE8F08F3038024090
:1035A0000014024000040240000C024000100240DF
:1035B000000011100008024010B586B00024164823
:1035C000009401940294039404944FF08041059474
:1035D000C0E900141321C0E9024104618461FFF7CE
:1035E00017FC08B1FEF788FA4FF480500090694646
:1035F0000948FFF795FC08B1FEF77EFA2020CDE9D7
:10360000040404A90448FFF7BBFB002801D0FEF71F
:1036100073FA06B010BD0000005A002010B586B045
:1036200000241748009401940294039404941349CD
:10363000059401600121C0E901142921C0E90314A6
:1036400080218161FFF7E4FB08B1FEF755FA4FF4E2
:103650008050009069460A48FFF762FC08B1FEF707
:103660004BFA2020CDE9040404A90548FFF788FBA4
:10367000002801D0FEF740FA06B010BD000400405B
:10368000485A00200C4810B50A4901604FF4E13156
:103690004160002181600C22C160C0E90412816197
:1036A000C161FFF7B3FD002803D0BDE81040FEF76D
:1036B00023BA10BD00100140905A0020FEE7FEE73B
:1036C00010B5FFF70BF802F07DF8012803D0BDE834
:1036D000104002F061B810BD30B593B0302168469B
:1036E000FDF750FD14210CA8FDF74CFD1D480025E9
:1036F000016841F080510160006800F08050119035
:103700001948016841F4804101600068022400F416
:103710008040119001200090000401908001CDE9CB
:10372000064008AA0420A82182E813000B906846EE
:10373000FFF75CF908B172B6FEE70CA90F2081E82B
:1037400031004FF4A0500F904FF48050109005219D
:103750000CA8FFF761F8002801D072B6FEE713B09D
:1037600030BD00004038024000700040024801684F
:1037700041F470010160704788ED00E0F0B5026827
:10378000254C264D264E274F274B4FF0804CA0420C
:1037900009D0604507D0A84205D0B04203D0B84256
:1037A00001D0984204D122F0700E4A6842EA0E021B
:1037B000A0421BD0604519D0A84217D0B04215D006
:1037C000B84213D0984211D0184DA8420ED0184DCF
:1037D000A8420BD0174DA84208D0174DA84205D0DB
:1037E000164DA84202D0164DA84203D122F44075CE
:1037F000CA682A434D6922F080022A4302608A681F
:10380000C2620A688262A04201D0984201D109696D
:10381000016301214161F0BD00000140000400404E
:1038200000080040000C004000040140004001403E
:10383000004401400048014000180040001C0040C6
:103840000020004010B5846842EA032224F47F443B
:103850000A432243826010BD826822F070020A434C
:1038600042F007018160704710B5036A046A24F0D2
:1038700001040462846924F0F00444EA021423F091
:103880000A020A438461026210BD10B5036A23F084
:10389000100303628369046A23F4704343EA02322B
:1038A00024F0A00343EA01118261016210BD10B54A
:1038B000806B0021C185C184FFF79EFB10BD0168AC
:1038C000CA6822F49072CA6001684A6922F0010253
:1038D0004A61016B012904D10168CA6822F0100213
:1038E000CA60202180F83E1000210163704710B5A6
:1038F000044690F83E00222801D0022010BDA168A5
:103900004FF48052914201D1206920B1A06A9142C6
:103910001BD049B10AE02168A06A4968C1F30801D7
:103920000180A06A801C08E0216971B121684968A2
:1039300001F07F010170A06A401CA062E08D401E72
:103940000004000CE08503D01CE021684968F1E721
:103950002068C16821F02001C1602068C16821F49D
:103960008071C1602068416921F00101416120201E
:1039700084F83E00206B012806D02046FFF7D2FCD9
:1039800000202063002010BD2068C16821F01001D4
:10399000C160A18D2046FFF72EFBF1E770B504460C
:1039A00000680169E26821F4405111430161216915
:1039B000A068E26908436169114308432168CA6845
:1039C00049F20C639A430243CA6020684169A269C4
:1039D00021F440711143416131492068884202D08D
:1039E0003049884202D1FEF7C1FF01E0FEF7AEFF89
:1039F000E2690023192164253226B2F5004F62687E
:103A000028D0A0FB0101930F9200FDF783FB014634
:103A1000B0FBF5F06FF01802504301EB800006EBAD
:103A20000010B0FBF5F000F0F002B1FBF5F002EB96
:103A30000012B1FBF5F06FF01803584301EB800062
:103A400006EB0010B0FBF5F000F00F002168104409
:103A5000886070BDA0FB010192185B41FDF75AFB25
:103A60000146B0FBF5F00201B1FBF5F06FF0180371
:103A7000584301EB800006EBC000B0FBF5F000F00E
:103A8000F80002EB4002B1FBF5F0584301EB800077
:103A900006EBC000B0FBF5F000F00700D6E7000031
:103AA00000100140001401400148FFF7A7BA0000D0
:103AB000905A0020FEE700000FB4054B10B503A993
:103AC000044A029800F05AFF10BC5DF814FB000095
:103AD000C55000082800002003B401984100009858
:103AE00050EAC12018BF04204A0D18BF40F0010061
:103AF00040F2FF72B2EB515F08BF40F002000128B4
:103B000008BF052002B070470907090E002804DB32
:103B100000F1E02080F80014704700F00F0000F181
:103B2000E02080F8141D704710EE101A08B5444AC2
:103B30006846B2EB410F28D94FF0E640B0EB410F99
:103B400094BF00204FF0FF3000900098002861DB08
:103B500060EE000A10F0010F45D010F0020FDFED0B
:103B6000391A9FED391A00EEE11ADFED381A40EEEE
:103B7000811A21EEA01AF0EE400A40EE010A08BFB9
:103B8000F1EE600AB0EE600A08BD314B21F0004250
:103B900093423CD911F0004FDFED2E0A20EE201A9F
:103BA000DFED2D0A19BF31EE601A71EE200A31EEF9
:103BB000201A71EE600ABDEEE01A11EE100A9FEDB8
:103BC000271A00F0030000EEC10A9FED251A0090AD
:103BD00000EEC10A9FED231A00EEC10A9FED221AE2
:103BE00000EEC10AB1E79FED211A9FED210A10F006
:103BF000020F00EE810A9FED1F1A00EE801AB7EE49
:103C0000000A00EE810A18BFB1EE400A08BD00F0BC
:103C100043FD9AE710EE100A4000B0F17F4F3CBF21
:103C2000B7EE000A08BD07D14FF0010000F0EEFD2D
:103C3000BDE8084000F028BDBDE8084000F020BD08
:103C4000B61F927E336D4C39DA82083CA0AA2ABE98
:103C5000490E494683F9223F0000004B0000C93F4E
:103C600000A0FD390020A2331A61342CB93AB2BA4F
:103C7000CA9F2A3DDDFFFFBE2DE9F0412DED020B6D
:103C80009FED3D0B2DED028B9FED3D8BDDE9025449
:103C9000C4F30A50A0F2FF36142E37DA002E18DAD9
:103CA00053EC102B9DED020B51EC100BFDF775FA48
:103CB00053EC182BFDF742FD57D2002CA4BF002473
:103CC000254652DA24F00040284318BF2E4C4CD031
:103CD0001AE02E4820FA06F704EA070028431FD00E
:103CE00053EC102B9DED020B51EC100BFDF755FA28
:103CF00053EC182BFDF722FD37D2002C03DA4FF4DA
:103D00008010F0400444BC4300252EE0332E07DC35
:103D1000A6F114004FF0FF3121FA00F73D4206D121
:103D20009DED020BBDEC028B02B0BDE8F08153ECBF
:103D3000102B9DED020B51EC100BFDF7D2FA53EC5A
:103D4000182BFDF7FBFC10D2002C0DDA142E08BF47
:103D5000641C09D0C6F13400012101FA00F02844A6
:103D6000A84238BF641C0546BD43CDE902549DED11
:103D7000020BD7E7000000009C7500883CE4377E0A
:103D800000000000000000000000F0BFFFFF0F0077
:103D900010B52F499FED2C1B2DED020B84B005981B
:103DA00020F000408842DCBF00209DED040B32DD96
:103DB0002849884209D1049840B94FF0010000F029
:103DC00025FD00F03DFC06B010BD05DB9DED040BAC
:103DD00000F02AFC06B010BD68469DED040B00F013
:103DE0003BF810F0030011D0012818D09DED021B04
:103DF0009DED000B02281AD000F04AFA51EC100B8E
:103E000081F0004106B041EC100B10BD9DED021B8E
:103E10009DED000B012000F06FFB06B010BD9DED85
:103E2000021B9DED000B00F033FA06B010BD01201F
:103E300000F062FB51EC100B81F0004106B041EC48
:103E4000100B10BD0000000000000000000000008A
:103E5000FB21E93F0000F07F2DE9F14F04462DEDF5
:103E6000020B2DED088B8AB09FEDE70B80ED020B66
:103E7000139EE74826F0004585420ADC9DED120BB3
:103E8000002084ED000B0AB0BDEC088B03B0BDE848
:103E9000F08FE0489FEDE0AB9FEDE1BBA84247DD2E
:103EA000E14F9FEDE39B9FEDE48B9DED120B53ECF7
:103EB0001A2B51EC100B002E1CDDFDF70FFA41EC14
:103EC000100BBD4208D053EC1B2B51EC100BFDF72F
:103ED00005FAC4E900010BE053EC192B51EC100B6F
:103EE000FDF7FCF953EC182BFDF7F8F9C4E90001D4
:103EF0000120C8E7FDF751F941EC100BBD4208D095
:103F000053EC1B2B51EC100BFDF747F9C4E90001F2
:103F10000BE053EC192B51EC100BFDF73EF953EC71
:103F2000182BFDF73AF9C4E900014FF0FF30AAE77A
:103F3000C348A84279DB9DED120B51EC100B01F048
:103F4000B4F841EC180B9FEDC00B53EC102BFDF7B0
:103F5000CBF99FEDBF1B53EC112BFDF71EF9FDF7BD
:103F600028FC0746FDF714FC41EC190B53EC1A2B07
:103F7000FDF7BAF953EC182BFDF7B3F941EC180B28
:103F800053EC1B2B51EC190BFDF7AEF9DFF8C8A26F
:103F900041EC100B4FEA15580125FA4453EC102B55
:103FA00051EC180BFDF79AF9032DC4E900013DD03F
:103FB000C1F30A5005EB4511A8EB0000113981420D
:103FC00034DA0AEB051BB0EE48AA9BED000BF0EECD
:103FD00068AA53EC102B51EC190BFDF785F941EC55
:103FE0001B0B51EC1A0B53EC1B2BFDF777F941EC33
:103FF000180B51EC1A0B53EC182BFDF76FF953EC1F
:104000001B2BFDF76BF99BED020B41EC1A0B53ECEC
:10401000102B51EC190BFDF767F953EC1A2BFDF738
:104020005DF941EC100B6D1CB8E70EE0002EA8BF47
:104030003846BFF628AF94ED000B51EC100B81F021
:104040000041C4E9000178421DE7C6F3130040F4C3
:10405000801EC6F30A50A0F2F530471100F01F058C
:10406000C5F12000DDF848B00890002006900790C8
:104070000520EC467949002D07EB0002794408BF82
:1040800051F8221009D051F8223001EB8201AB40E7
:104090004A68089922FA01F11943A1FB0E26A1FBF7
:1040A0000B131A449A4234BF0123002303EB060882
:1040B0000CEB8003D3E901A60E448E4234BF0121EC
:1040C000002192448A4411B1924502D903E09245FD
:1040D00001D2012100E00021C3E901A641444CF8CE
:1040E0002010011EA0F10100C4DC029800F1005074
:1040F000850F0298DDE903678000DDF81480FDF785
:1041000047FB41EC1A0B3046FDF7CFF99FED541BEE
:1041100053EC112BFDF7E8F841EC1B0B3846FDF78B
:10412000C4F99FED511B53EC112BFDF7DDF841EC69
:10413000180B4046FDF7B9F99FED4D1B53EC112BC1
:10414000FDF7D2F841EC190B51EC180B53EC192B7D
:10415000FDF723F853EC1B2BFDF71FF853EC1A2B3C
:10416000FDF71BF8CDE90801002008909DED080B34
:1041700053EC1A2B51EC100BFDF7B0F853EC1B2B42
:10418000FDF7ACF853EC182BFDF7A8F853EC192BFE
:10419000FDF7A7F89FED381B53EC112BFDF7A4F8A2
:1041A0009FED370B41EC180B53EC102B9DED080BDA
:1041B00051EC100BFDF798F853EC182BFCF7EDFFC2
:1041C0009FED310B41EC180B53EC102B9DED080BC0
:1041D00051EC100BFDF788F853EC182BFCF7DDFFC2
:1041E00041EC100B139810F0004F06D06D4251ECCB
:1041F000100B81F0004141EC100B284684ED000BC0
:1042000041E6000000000000000000000000000087
:10421000FB21E93F7CD9024000004054FB21F93FDB
:104220003163621A61B4D03DFB21F93F0000000008
:104230000000601A61B4D03D7370032E8A19A33B4D
:10424000FB2139410000000083C8C96D305FE43FA5
:10425000000000000000E03F82470000D046000060
:10426000000000000000103E000000000000103CB4
:10427000000000000000103A182D4454FB21F93DC5
:104280003326A611460B113C00000054FB21F93DDA
:1042900010B52DED040B2DED088B82B0B0EE419AD8
:1042A000F0EE619A0B9820F000449FED4BABB4F117
:1042B000795F11DA9DED0A0B51EC100BFDF779FADD
:1042C000002801BFB0EE4A0AF0EE6A0A02B0BDEC67
:1042D000088B04BF04B010BD9DED0A0B53EC102BEE
:1042E00051EC100BFDF700F841EC180B3C4806218F
:1042F000B0EE480AF0EE680A784400F081F853EC1A
:10430000182B51EC100BFCF7EFFF9DED0A0B41EC65
:104310001B0B53EC192B51EC100BFCF7E5FF41EC98
:10432000190B53EC1B2B51EC180BFCF7DDFF53EC76
:10433000192BFCF7D3FF9FED2C0B41EC190B53EC21
:10434000102B51EC180BFCF7CFFF41EC100B284859
:10435000844210DA53EC192B51EC100BFCF7BEFF22
:1043600053EC1A2BFCF7BDFF41EC100B02B0BDEC77
:10437000088B04B010BD1F48A042BCBF9FED1E1BA0
:104380008DED001B06DBA4F50010019000200090CD
:104390009DED001B51EC100B53EC112BFCF79EFF15
:1043A0009DED000B41EC180B53EC102B51EC1A0B4C
:1043B000FCF794FF41EC1A0B53EC192B51EC180B42
:1043C000FCF78CFF53EC1A2BFCF78BFF41EC100B26
:1043D000CCE7000000000000000000000000F03FFB
:1043E000F443000000000000000000000000E03F77
:1043F0003333D33F0000E93F000000000000D23F0C
:1044000070B504462DED028B4D1E00EBC500B0EEDD
:10441000408AF0EE608A90ED000B35F0060017D070
:1044200053EC182B51EC100BFCF75EFF41EC100B1A
:104430006D1E04EBC50090ED001B51EC100B53EC0E
:10444000112BFCF7AAFE41EC100B35F00600E7D16A
:10445000022D36D0042D1CD0062D1CBFBDEC028BC6
:1044600070BD53EC182B51EC100BFCF73DFF94ED95
:104470000A1B53EC112BFCF790FE53EC182BFCF7A6
:1044800033FF94ED081B53EC112BFCF786FE41EC37
:10449000100B53EC182B51EC100BFCF725FF94ED8F
:1044A000061B53EC112BFCF778FE53EC182BFCF792
:1044B0001BFF94ED040B53EC102BFCF76EFE41EC4C
:1044C000100B53EC182B51EC100BFCF70DFF94ED77
:1044D000021B53EC112BFCF760FE53EC182BFCF77E
:1044E00003FF94ED001B53EC112BFCF756FEBDECC3
:1044F000028B41EC100B70BD31B504462DED040B61
:104500002DED0A8BB0EE41BAF0EE61BA0B989DED3D
:104510000A0B20F00040B0F1795F0DDA51EC100B7E
:10452000FFF7DAFA042808BF00F09AF89DED0A0BAD
:10453000BDEC0A8B05B030BD53EC102B51EC100BC9
:10454000FCF7D2FE41EC180B9DED0A0B53EC182B37
:1045500051EC100BFCF7C8FE41EC190B2C48B0EEE7
:10456000480AF0EE680A05217844FFF749FF9FEDFD
:104570002ACBB0EE40AAF0EE60AA9CB353EC1C2B01
:1045800051EC190BFCF7B0FE41EC1C0B53EC1A2B51
:1045900051EC190BFCF7A8FE9FED210B41EC190B18
:1045A00053EC102B51EC1B0BFCF79EFE53EC192B1C
:1045B000FCF794FE53EC182BFCF796FE53EC1B2BE8
:1045C000FCF78CFE53EC1C2BFCF788FE9DED0A1BC0
:1045D00053EC112BFCF785FEBDEC0A8B05B041ECCA
:1045E000100B30BDFFE753EC1A2B51EC180BFCF706
:1045F0007BFE53EC1C2BFCF7D0FD53EC192BFCF786
:1046000073FE9DED0A1B53EC112BFCF7C6FDE3E78F
:104610009C42000000000000495555555555C5BF46
:10462000000000000000E03F10B553EC102B51ECEF
:10463000100BFCF7B2FD41EC100B10BD00000000A8
:104640009FED050B10B553EC102B51EC100BFCF744
:10465000BDFE41EC100B10BD00000000000000008A
:104660009FED050B10B553EC102B51EC100BFCF724
:104670003BFE41EC100B10BD0000000000000010DC
:1046800030EE000A70470000DFED020A80EEA00A5B
:1046900070470000000000002DE9F0014FF07F425C
:1046A000B2EB410F9FBF4FF0FF310160BDE8F00159
:1046B00070474FF0004242EA0123C1F3C752783AF3
:1046C000551112F01F0C434CCCF120067C44C1F371
:1046D000C752A2F178024FEA621204EB820254F848
:1046E000254008BFD2E9015612D0556804FA0CF4EF
:1046F00025FA06F73C43976805FA0CF527FA06F801
:10470000D26807FA0CFCF24045EA08054CEA0206BA
:10471000A4FB034CA5FB0352A6FB03631D449D426F
:1047200034BF012600261319334416B1934202D92F
:1047300003E0934201D2012200E00022624402F130
:10474000200C9206DC0C42EA443200EE102A5B0395
:10475000DFED210AF8EEC01A00EE103A4FEA9C1C79
:1047600011F0004FB8EE400AC0F800C020EE201A49
:1047700000EE105ADFED190AB8EE400A20EE200ACA
:1047800071EE810A70EE800A10EE902A02F5006246
:104790006FF30B0200EE902A70EEE11A31EEC11AAF
:1047A000DFED101A30EE411A9FED0D0A20EE800A5F
:1047B00001EE210A9FED0C1A00EE810A04BFBDE84C
:1047C000F0017047CCF180510160BDE8F001B1EE1D
:1047D000400A704718410000000000360000802C9D
:1047E00022AAFD29DB0FC92F0000C92F02E008C84B
:1047F000121F08C1002AFAD170477047002001E05B
:1048000001C1121F002AFBD1704700000149086056
:1048100070470000800000202DE9FF5FDDE90220E5
:10482000010DDDF838B0024318D044F61050A1F263
:10483000FF3141430D140F98012820D0A5EB0B0048
:10484000401C5FEA000A4FF00004474EDFF81C915D
:10485000A046504616D5CAF1000728E00F9801245B
:1048600043A2012808D0002100980F9BC0E9002135
:10487000C0E90243BDE8FF9F6FEA0B01F4E7CBF10B
:104880000000DEE7074612E0F80707D0224633466D
:1048900040464946FCF728FD804689462246334675
:1048A00010461946FCF720FD04460E467F10002FE7
:1048B000EAD1DDE90201BAF1000F42464B4602DAC5
:1048C000FCF712FD01E0FCF781FD04460E460022D4
:1048D000284BFCF733FF03D84FF0FF30014607E0C9
:1048E0000022254B20463146FCF757FCFCF70DFF14
:1048F000102409E0002C0ADB0A220023FCF70AFC42
:10490000019B30321A55641E50EA0102F2D1641C38
:10491000019AC4F1110314440F9A012A03D0012211
:1049200008430DD10AE0084304D000204FF0110BDA
:104930000F9080E7A3EB0B056D1E0DE05B4504DDDA
:104940004FF0000205F1010504E003DA4FF0000228
:10495000A5F10105002AECD000980F99C0E90231B9
:10496000C0E9004586E70000000024400000F03F59
:10497000300000000000F0430000E03F2DE9FF4F51
:1049800095B09B468946064600250FE2252877D13B
:1049900000242746F84A0121059400E0044316F854
:1049A000013F203B01FA03F01042F7D130782A286A
:1049B00011D06FF02F033078A0F13002092A16D8F9
:1049C000059A44F0020402EB820203EB4202104417
:1049D000761C0590EFE759F8042B0592002A03DABC
:1049E000504244F40054059044F00204761C3078A0
:1049F0002E2816D116F8010F44F004042A280DD0F1
:104A00006FF02F023078A0F13003092B09D807EBA3
:104A1000870302EB4303C718761CF3E759F8047BBE
:104A2000761C30786C280FD006DC4C2817D068280C
:104A30000DD06A2814D104E0742810D07A280FD140
:104A40000DE044F400140AE044F4801401E044F45E
:104A500040147278824202D104F58014761C761CD0
:104A6000307866280BD013DC582877D009DC002872
:104A700075D04528F6D04628F4D047281AD19DE1B4
:104A800018E0632835D0642879D0652812D195E1E3
:104A9000702873D008DC6728F1D069286FD06E28A1
:104AA0000DD06F2806D1B5E073282CD0752875D0AD
:104AB000782874D05A46179990476D1C75E1C4F355
:104AC0000250022809D003280DD0D9F8001004287C
:104AD0000DD00D6009F1040967E1D9F80010EA175B
:104AE000C1E90052F6E7D9F800100D80F2E70D7029
:104AF000F0E719F8041B8DF8001000208DF8010074
:104B0000EA46012003E059F804AB4FF0FF3061079B
:104B10004FF0000102D40DE008F101018846B942CE
:104B20000FDA8045F8DB1AF808100029F4D108E004
:104B300008F1010188468142FADB1AF808100029C1
:104B4000F6D105985B46A0EB080721463846179A30
:104B500000F094FA284400EB080507E04DE029E155
:104B60000DE01AF8010B5A4617999047B8F1010861
:104B7000F7D25B4621463846179A13E142E00A22F3
:104B80000092C4F302524FF0000A022A08D059F8EA
:104B900004CB032A4FEAEC710AD00DE029E02AE0A9
:104BA00009F1070121F00702F2E802C1914609E08C
:104BB0000FFA8CFC4FEAEC71042A03D14FFA8CFCFB
:104BC0004FEAEC71002907DA0A460021DCF1000CFB
:104BD00061EB02012D2202E0220504D52B228DF883
:104BE0000420012203E0E20701D02022F7E79046EB
:104BF00059E00A2102E010220DE010214FF0000AD6
:104C000000910BE010224FF0000A44F00404082742
:104C1000009203E008224FF0000A0092C4F302520F
:104C2000022A05D059F804CB0021032A08D009E054
:104C300009F1070121F00702F2E802C1914605E0FF
:104C40001FFA8CFC042A01D10CF0FF0C4FF0000875
:104C5000220728D5702806D0009B83F0100353EA62
:104C60000A0305D00EE040228DF80420012208E05E
:104C70005CEA010206D030228DF804208DF8050090
:104C800002229046009B83F0080353EA0A030AD1EC
:104C90005CEA010201D1620705D530228DF80420BB
:104CA0004FF001087F1E582804D034A003900EA8AE
:104CB00002900DE036A0F9E753466046009AFCF7F3
:104CC00029FA84460398825C0298401E0290027082
:104CD0005CEA0100F0D1029806A9081A00F1200A46
:104CE000600702D524F4803400E00127574502DD37
:104CF000A7EB0A0000E0002000EB0A0100900598F5
:104D00004144401A0590E00306D45B462146179AB9
:104D1000059800F0B3F90544002706E001A85A46BB
:104D2000C05D179990476D1C7F1C4745F6DBE0037B
:104D30000CD55B462146179A059800F09FF905446B
:104D400004E030205A46179990476D1C0099481E80
:104D500000900029F5DC08E0029802995A46007894
:104D6000491C0291179990476D1CBAF10001AAF1F4
:104D7000010AF1DC65E1000009280100303132331D
:104D80003435363738396162636465660000000087
:104D90003031323334353637383941424344454671
:104DA0000000000000F058F90544761C3078002817
:104DB0007FF4ECAD19B02846BDE8F08F620700D44F
:104DC000062709F1070222F0070CFCE80223E1465E
:104DD00003F000485FEA080C02D00FF2702C0DE0DF
:104DE0005FEA045C02D50FF2682C07E05FEAC47C3E
:104DF00002D00FF2602C01E0AFF2700C4FF0FF38E0
:104E000023F00043CDF850C065280CD006DC4528BF
:104E100009D046281DD047283DD13DE0662818D04E
:104E200067287ED138E00021112F01DB112000E03E
:104E3000781CCDE9000106A90EA8FFF7EDFCDDE91D
:104E40000F010E9A03910021009207F1010A0491CB
:104E50004DE04FF000400097CDE9011006A90EA8E3
:104E6000FFF7DAFCDDE90F0203920E9B1199002295
:104E7000DDF80CA00093049211B9791C00EB010A33
:104E8000B7EB0A0004D4C0F1FF3007F1010A049027
:104E9000AAEB0700019044E0012F00DA012700216E
:104EA000112F01DD112000E03846CDE9000106A9EF
:104EB0000EA8FFF7B1FCDDE90F010E9A0391002166
:104EC00004910092BA4621070CD40399514500DAA7
:104ED0008A46BAF1010F05DD009AAAF10101515C81
:104EE000302908D0B84202DA10F1040F06DA0121A5
:104EF000CDE9011015E0AAF10101E9E7002805DC80
:104F0000049901440491AAEB000102E0411C5145BF
:104F100000DD8A460499401A401C01904FF0004081
:104F20000290200704D40198504501DBCDF804809D
:104F300000208DF84F0002980DF14F07B0F1004F9F
:104F400025D02B200E9002984FF0020800280CDA92
:104F5000404202902D200E9007E00A210298FCF7B3
:104F6000F9FA3031029007F8011DB8F10001A8F1FB
:104F70000108F2DC02980028EFD1791E0E98087023
:104F8000307800F0200040F0450007F8020D12A82C
:104F9000C01B00F107081498007800B1012000EB55
:104FA0000A01019801EBE07105984144401A401E46
:104FB0000590E00306D45B462146179A059800F059
:104FC0005DF805441498007818B15A46179990472F
:104FD0006D1CE00324D55B462146179A059800F026
:104FE0004DF805441CE00498002807DBDDE90301C7
:104FF000884203DD0098405C179901E01799302042
:105000005A469047049805F10105401C0490019808
:10501000401E019004D12E205A46179990476D1CCE
:10502000BAF10001AAF1010ADDDC05E017F8010B75
:105030005A46179990476D1CB8F10001A8F1010874
:10504000F4DC5B462146179A0598ABE62D0000007C
:105050002B000000200000002DE9F041044600254F
:105060001E461746880404D405E039462020B04780
:105070006D1C641EF9D52846BDE8F0812DE9F0418C
:10508000044600251E469046C80301D5302700E09F
:105090002027880404D505E041463846B0476D1CFA
:1050A000641EF9D52846BDE8F08182B0CDE9000143
:1050B00021F0004001909DED000B02B051EC100B6F
:1050C0007047000003490A685206FCD5C2B24A6024
:1050D000704700000010014070B50D462DED068BA5
:1050E000064600243AE000BF00EE104A691EB7EE03
:1050F000008AF8EE400A00EE101A9FED1BAADFEDC1
:105100001B9AB8EE400A9FED1A9ADFED1AAAC0EE7C
:10511000808A9FED190A28EE800AFEF705FD0AEE47
:10512000408A9FED160A28EE800AFEF7FDFC09EE84
:10513000808A9FED130A28EE800AFEF7F5FC09EE3F
:10514000408A9FED100A28EE800AFEF7EDFC0AEE79
:10515000808A06EB8400641C80ED008AAC42C3D3D5
:10516000BDEC068B70BD00003D0AF73FB81EA53FA1
:10517000F0A7C63E4260E53CDB0FC940DB0F49416A
:10518000E4CB9641DB0FC9412DED0A8B82B0FDF7D0
:10519000ADFAFEF7A1FAFEF759F9FEF721F9FEF78D
:1051A00071FAFEF7C3F8FEF739FAFEF7F1F8FEF7E9
:1051B00003FAFE48FDF778FE4FF480663246FC495C
:1051C000FC48FCF7BBFDFC4C20780028FCD0DFF845
:1051D000E08300259FEDF99B08F520579FEDF98AA4
:1051E0009FEDF9AB38F81500FCF75FF953EC1A2B7B
:1051F000FCF77AF853EC192BFCF776F8FCF78EF9EC
:1052000007EBC5016D1C086081ED018AB542E9DB41
:105210004FF400652946EE48FFF75EFFEC4A002098
:1052200007EB800102EB800391ED000AD3ED000A49
:10523000401CA84220EE200A81ED000AF0DB012389
:105240000022E449E448FBF7E5FB3246E349E14844
:10525000FBF776F8E14D95ED000ADFEDE10A01205C
:1052600020EE200A85ED000A9FEDDE0A05EB8001A5
:10527000401CD1ED000AB04260EE800AC1ED000A88
:10528000F4DB4FF4007000BF05EB8001401C80B2DE
:1052900081ED008AB042F7D3C74B85ED008A85EDDA
:1052A000018A1B1DB14685ED028A03F110024946B1
:1052B000CA48FBF755FC6068BF4B05EB800008331C
:1052C00080ED008A00ED018A00ED028A80ED018AFE
:1052D00080ED028A03F110023146C048FBF740FC22
:1052E00094ED010AB8EE400ADFEDBF0A94ED021A10
:1052F00020EE200AB8EE411A61EE200ADFEDBB8AEB
:1053000080EE289AC0EEA89A84ED039A19EE100A4E
:10531000C4ED049AFCF7EFF841EC100BFEF7ACFC7F
:1053200051EC100BFCF7CEF800EE100AE0614FF0E4
:105330007C55B8EE400AB7EE00BA39EE400A10EEDE
:10534000101A84ED080AA94202DD84ED08BA01E0D2
:1053500084ED088A00EE100AD4ED080AA44EB8EED7
:10536000400A30EE200A20EE280A10EE100A84EDE2
:10537000030A9FEDA09AB04203DD39EE400A84EDA6
:10538000030A19EE900AFCF7B6F841EC100BFEF791
:1053900073FC51EC100BFCF795F800EE100AB8EE18
:1053A000400A39EEC00A10EE101A84ED090AA9422B
:1053B00002DD84ED09BA01E084ED098A00EE100AED
:1053C000D4ED090AB8EE400A30EE200A20EE280A91
:1053D00010EE100A84ED040AB04203DD39EE400AF3
:1053E00084ED040A94ED030AD4ED040AB4EEE00A55
:1053F000F1EE10FA03DDC4ED030A84ED040AA046C1
:10540000E068FCF778F841EC100B7BA053EC102B14
:10541000FEF752FB2069FCF76EF841EC100B76A00A
:1054200053EC102BFEF748FB6069FCF764F841EC85
:10543000100B71A053EC102BFEF73EFBA069FCF79C
:105440005AF841EC100B6CA053EC102BFEF734FB18
:10545000D4ED030A9FED6A0A80EE201AFCEEC10A21
:1054600010EE900AD4ED040A86B280EE201ABCEE4B
:10547000C10A10EE100A85B2700000F0F9F88346F8
:10548000680000F0F5F807460024B0EE008ADFED72
:105490005D8A9FED5DBB4FF4805A45E098ED050AAB
:1054A00020EE080A10EE100AFCF725F800EE104A6C
:1054B00041EC190BB8EEC00A60EE280A00EE106A43
:1054C000B8EE401A80EE810A10EE100AFCF713F8CD
:1054D00041EC100BFEF75CFCB0EE40CA98ED050AFB
:1054E000F0EE60CA20EE080A10EE100AFCF703F88E
:1054F00053EC1C2BFBF7F8FE53EC192BFBF74DFE7E
:1055000053EC1B2BFBF7F0FE53EC1A2BFBF75EFF63
:10551000FBF7D8FF80B22BF81400504503D340F6B8
:10552000FF702BF81400641CB442B7DB002478E051
:1055300098ED060A20EE080A10EE100AFBF7DBFFD2
:1055400000EE104A41EC190BB8EEC00A60EE280AD2
:1055500000EE105AB8EE401A80EE810A10EE100AE2
:10556000FBF7C9FF41EC100BFEF712FCB0EE40CA8E
:1055700098ED060AF0EE60CA20EE080A10EE100A56
:10558000FBF7B9FF53EC1C2BFBF7AEFE53EC192BCA
:10559000FBF703FE53EC1B2BFBF7A6FE53EC1A2B79
:1055A000FBF714FFFBF78EFF80B231E0485A002072
:1055B000840000208458002000000020000000002B
:1055C0000000303F000000006666666666660A40BE
:1055D0008408002084280020CC580008844800203B
:1055E0000000803A0000003B0000744400007A4450
:1055F0000050C34700247449252E32660D0A00006E
:10560000802C804ADB0FC940000000000000B04041
:1056100027F81400504503D340F6FF7027F8140014
:10562000641CAC4284DB0F48FDF73EFC002433468B
:105630005A4621460C480094FCF7D2FC2B463A46C9
:10564000102109480094FCF7CBFC084D4C464FF460
:10565000FA7621462846FDF72DF83046FCF714FF70
:10566000F7E70000005A00202C59002000140240E7
:10567000F0B50B30154D20F007010024144A0FE05F
:1056800003688B420BD38B4205D95E1A43184768D7
:10569000C3E9006700E04368136002C004E0021D34
:1056A00010680028ECD12046002802D1286808B1F3
:1056B0000020F0BD064A07481060074A121A22F07F
:1056C0000702C0E9002401202860D7E77C00002001
:1056D000780000202C5C0020286000200648416BE8
:1056E000096829B1416BC968C96849688162704716
:1056F0004FF0FF31FAE700003C000020D0E9013212
:1057000001699A60D0E901235A604A68824201D156
:1057100082684A60002202610868401E08600868CA
:10572000704742684A6093688B60936859609160E3
:1057300008610168491C0160704700001448016B52
:1057400011B10121C16170470021C1610169B1FA44
:1057500081F1C1F11F0101EB81020E4951F82230A4
:105760006BB101EB820101F108034A6852684A609B
:105770009A4201D152684A60D16801607047502056
:1057800080F31188BFF34F8FBFF36F8FFEE70000E8
:105790003C000020345B002010B5502080F31188BD
:1057A000BFF34F8FBFF36F8F00F01AF818B10449A1
:1057B0004FF080500860002080F3118810BD000079
:1057C00004ED00E00548416919B1006B18B10020F3
:1057D0007047012070470220704700003C00002005
:1057E0002DE9F0412F4C0026206B28B1A069401C08
:1057F000A0613046BDE8F081E5686D1CE56013D11D
:10580000606B006838B1502080F31188BFF34F8F70
:10581000BFF36F8FFEE7606BA16B6163A063206ACB
:10582000401C2062FFF75AFFA06ADFF87C808542A7
:1058300009D3606B0068A0B1606BC068C768786806
:10584000854211D2A0622068C06A00EB800158F83E
:105850002100012800D90126E0690028C9D00126CD
:10586000C7E74FF0FF30EDE7381DFFF747FFB86A95
:1058700018B107F11800FFF741FFF96A012022690A
:1058800088401043206101EB810108EB8100391D44
:10589000FFF747FFF86A2168C96A8842C9D3012621
:1058A000C7E700003C000020345B00200006101613
:1058B00000061016000000000000000001020304B2
:1058C00006070809000000000102030400040000AC
:1058D000DC580008DC780008080700000000803F62
:1058E00000000000C4FE7F3F890FC93B11FB7F3FD2
:1058F000900E493CE6F47F3FB6C9963C43EC7F3FAF
:10590000B00AC93C29E17F3FB949FB3C98D37F3FAE
:105910002CC3163D8FC37F3F07E02F3D0FB17F3F64
:105920002FFB483D189C7F3F6814623DAB847F3F4E
:10593000742B7B3DC76A7F3F0A208A3D6D4E7F3FB7
:1059400005A9963D9D2F7F3F8C30A33D580E7F3F8C
:1059500080B6AF3D9DEA7E3FC33ABC3D6DC47E3FFD
:1059600036BDC83DC99B7E3FB93DD53DB0707E3F39
:105970002EBCE13D23437E3F7638EE3D24137E3F2F
:1059800073B2FA3DB1E07D3F0295033ECCAB7D3F63
:1059900086CF093E74747D3FB708103EAC3A7D3F18
:1059A0008340163E73FE7C3FDE761C3EC9BF7C3FC3
:1059B000B6AB223EB07E7C3FFCDE283E283B7C3FDF
:1059C000A2102F3E31F57B3F9840353ECDAC7B3F5A
:1059D000CF6E3B3EFC617B3F379B413EBE147B3F1D
:1059E000C2C5473E16C57A3F60EE4D3E02737A3F10
:1059F0000115543E841E7A3F97395A3E9DC7793F20
:105A0000135C603E4E6E793F667C663E9812793F2D
:105A10007F9A6C3E7BB4783F51B6723EF853783F24
:105A2000CCCF783E10F1773FE1E67E3EC58B773FE5
:105A3000C07D823E1724773FCE86853E07BA763FEB
:105A4000938E883E974D763F07958B3EC6DE753F19
:105A5000229A8E3E976D753FDD9D913E0BFA743F05
:105A600031A0943E2284743F17A1973EDD0B743F12
:105A700086A09A3E3F91733F789E9D3E4714733FA8
:105A8000E59AA03EF894723FC595A33E5213723F2B
:105A9000128FA63E578F713FC486A93E0809713FF9
:105AA000D47CAC3E6680703F3A71AF3E73F56F3F79
:105AB000EF63B23E30686F3FEC54B53E9ED86E3F08
:105AC0002A44B83EBE466E3FA031BB3E93B26D3F06
:105AD0004A1DBE3E1D1C6D3F1E07C13E5E836C3FCE
